S01700004763634170706C69636174696F6E352E7372656357
S11300000C942A000C9434000C9434000C943400A6
S11300100C9434000C9434000C9434000C9434008C
S11300200C9434000C9434000C9434000C9434007C
S11300300C9434000C9434000C9434000C9434006C
S11300400C9434000C9434000C9434000C9434005C
S11300500C94340011241FBECFE5D8E0DEBFCDBF21
S11300600E9436000C945E000C9400008FEF81BB5C
S113007081E082BB2FE33DE083E0215030408040AB
S1130080E1F700C0000091E082B3880F82BB2FE348
S11300903DE083E0215030408040E1F700C00000A3
S11300A082B3803288F392BB2FE33DE083E021509A
S11300B030408040E1F700C00000E6CFF894FFCF65
S9030000FC
