S01800006A6F79537469636B5F61746D656761382E73726563B6
S113000012C02CC02BC02AC029C028C027C026C0BB
S113001025C024C023C05BC083C020C01FC01EC035
S11300201DC01CC01BC011241FBECFE5D4E0DEBF21
S1130030CDBF10E0A0E6B0E0EAE8F2E002C005902F
S11300400D92AE36B107D9F720E0AEE6B0E001C0BC
S11300501D92A33BB207E1F713D015C1D1CF87B1ED
S113006087B9379A86B1876086B9089587B914BA73
S11300700895369A349BFECF349A84B195B108958D
S113008087E690E072D0EBDF80E0F0DFF2DF92D021
S113009080E690E0B7D081E0E9DFEBDF8BD080E64B
S11300A090E0B0D083E0E2DFE4DF84D080E690E04B
S11300B0A9D084E0DBDFDDDF7DD080E690E0A2D054
S11300C084E690E09FD083E694E074D0DDCF1F9265
S11300D00F920FB60F9211242F938F939F93EF9348
S11300E0FF938BB12CB18871E0917000EF5FEF71D9
S11300F090916F00E91739F0E0937000F0E0ED584B
S1130100FF4F208301C082E080936E00FF91EF9146
S11301109F918F912F910F900FBE0F901F90189564
S11301201F920F920FB60F9211248F939F93EF9308
S1130130FF939091720080917100981761F0E091A3
S11301407100EF5FEF71E0937100F0E0ED56FF4F47
S113015080818CB901C05598FF91EF919F918F9147
S11301600F900FBE0F901F9018951092720010926E
S113017071001092700010926F0099231CF422E019
S11301802BB99F7790BD89B988E98AB986E880BD83
S11301900895209172002F5F2F719091710029179B
S11301A0E1F3E22FF0E0ED56FF4F808320937200DD
S11301B0559A08950F931F93CF93DF93CDB7DEB76E
S11301C02F970FB6F894DEBF0FBECDBF4AE0BE0135
S11301D06F5F7F4F25D08981882349F08E010E5FA0
S11301E01F4FD7DFF80181918F018111FACF2F962C
S11301F00FB6F894DEBF0FBECDBFDF91CF911F9134
S11302000F910895CF93DF93EC018881882329F01F
S11302102196BFDF89918111FCCFDF91CF910895A1
S1130220BB274A3031F4992322F4BDE2909581959D
S11302309F4F01C0BB27FB015527AA27880F991F91
S1130240AA1FA41710F0A41B83955051B9F7A05D01
S1130250AA3308F0A95DA193009779F7B111B1937E
S11302601192CB0100C0DC01FC01672F719177234F
S1130270E1F7329704C07C916D9370836291AE175D
S10D0280BF07C8F30895F894FFCFF8
S111028A0A200D0048656C6C6F206D616E00DB
S9030000FC
