S015000055415254696E746572727570742E73726563E6
S11300000C9434000C9446000C9446000C94460066
S11300100C9446000C9446000C9446000C94460044
S11300200C9446000C9446000C9446000C94460034
S11300300C9446000C9446000C9446000C94460024
S11300400C9446000C9446000C94A2000C94D0002E
S11300500C9446000C9446000C9446000C94460004
S11300600C9446000C94460011241FBECFEFD8E038
S1130070DEBFCDBF21E0A0E0B1E001C01D92AA37F0
S1130080B207E1F70E9448000C9438010C94000078
S11300900E94520081E60E947C000E9461000E943E
S11300A07C00FBCF1092C50087E68093C400E1EC8E
S11300B0F0E08081886980838EE08093C200789428
S11300C008959091030180910101981799F0E091AE
S11300D00301F0E0E15CFE4F208190910301892F40
S11300E090E001966BE370E00E941001809303019D
S11300F0822F089580E00895482FEBE3F0E02091EB
S113010002018091000130E090E00196BF010E945D
S113011010012817390799F3E0910001F0E0EC5F32
S1130120FE4F40838091000190E001966BE370E004
S11301300E94100180930001E1ECF0E08081806274
S1130140808308951F920F920FB60F9211245F932C
S11301506F937F938F939F93AF93BF93EF93FF938B
S1130160E0910101F0E08091C600E15CFE4F8083E4
S11301708091010190E001966BE370E00E94100110
S113018080930101FF91EF91BF91AF919F918F9166
S11301907F916F915F910F900FBE0F901F901895F4
S11301A01F920F920FB60F9211245F936F937F9358
S11301B08F939F93AF93BF93EF93FF93909102011B
S11301C0809100019817C9F0E0910201F0E0EC5F22
S11301D0FE4F80818093C600E0910201F0E0EC5F65
S11301E0FE4F10828091020190E001966BE370E073
S11301F00E9410018093020105C0E1ECF0E08081CF
S11302008F7D8083FF91EF91BF91AF919F918F91EB
S11302107F916F915F910F900FBE0F901F90189573
S113022097FB072E16F4009407D077FD09D00E949F
S1130230240107FC05D03EF4909581959F4F0895C5
S1130240709561957F4F0895AA1BBB1B51E107C0B0
S1130250AA1FBB1FA617B70710F0A61BB70B881F52
S1130260991F5A95A9F780959095BC01CD010895E1
S1070270F894FFCF2C
S9030000FC
