S0120000434E4361746D656761382E7372656397
S113000012C019C018C017C016C015C025C013C02F
S113001012C011C010C00FC00EC00DC00CC00BC068
S11300200AC009C008C011241FBECFE5D4E0DEBF5A
S1130030CDBF02D027C0E4CFA59AA49AA39AA29ACE
S11300408EB58D608EBD89B7806189BF87E190E0F0
S11300509BBD8ABD7894FFCF1F920F920FB60F926B
S113006011248F939F9395B380E1892785BB95B322
S113007084E0892785BB9F918F910F900FBE0F90CD
S10B00801F901895F894FFCFBE
S9030000FC
