S00F0000737465707065722E7372656312
S11300000C942A000C9434000C9434000C943400A6
S11300100C9434000C9434000C9434000C9434008C
S11300200C9434000C9434000C9434000C9434007C
S11300300C9434000C9434000C9434000C9434006C
S11300400C9434000C9434000C9434000C9434005C
S11300500C94340011241FBECFE5D8E0DEBFCDBF21
S11300600E9436000C9459000C9400008FEF8ABB58
S113007032E024E098E086E13BBBEFE1FEE4319717
S1130080F1F700C000002BBBEFE1FEE43197F1F77C
S113009000C000009BBBEFE1FEE43197F1F700C024
S11300A000008BBBEFE1FEE43197F1F700C00000E4
S10900B0E3CFF894FFCF3A
S9030000FC
