S01400006761696E4374726C5F5049442E73726563A0
S113000071C000008EC000008CC000008AC00000D7
S113001088C0000086C0000084C0000082C00000C8
S113002080C000007EC000007CC000007AC00000D8
S113003078C0000076C0000074C0000072C00000E8
S113004070C000006EC000006CC000006AC00000F8
S113005068C0000066C0000064C0000062C0000008
S113006060C00000DBC0000008C100005AC00000EE
S113007058C0000056C0000054C0000052C0000028
S113008050C000004EC000004CC000004AC0000038
S113009048C0000046C0000044C0000042C0000048
S11300A040C000003EC000003CC000003AC0000058
S11300B038C0000036C0000034C0000032C0000068
S11300C030C000002EC000002CC0000041C1000060
S11300D06EC1000026C0000098C10000C5C1000028
S11300E020C0000011241FBECFEFD1E2DEBFCDBF80
S11300F000E00CBF12E0A0E0B2E0E8ECF4E000E0C5
S11301000BBF02C007900D92A237B107D9F723E0C5
S1130110A2E7B2E001C01D92A134B207E1F702D018
S1130120D1C16ECF87E690E0D6D002D014D0FECFF6
S113013080B380BB80B380BB80B380BB80B380BB03
S113014080B380BB80B380BB889A8D9A899A8C9A3D
S11301508A9A8B9A0895789904C080910502811136
S11301602BC07D9904C08091040281112BC0799920
S113017004C08091030281112BC07C9904C080913A
S1130180020281112BC07A9904C08091010281116D
S11301902BC07B9904C08091000281112BC0789BF5
S11301A03CC07D9B3AC0799B38C07C9B36C07A9B0F
S11301B034C07B9925C0089586E092E0BBD01092AC
S11301C00502CFCF88E192E0B5D010920402CFCFE0
S11301D08AE292E0AFD010920302CFCF8CE392E098
S11301E0A9D010920202CFCF8EE492E0A3D0109255
S11301F00102CFCF80E692E09DD010920002CFCFD3
S113020081E080930502809304028093030280932B
S11302100202809301028093000208951F920F92BC
S11302200FB60F9211240BB60F922F938F939F93B7
S1130230EF93FF938091C0002091C6008871E091F4
S1130240FE02EF5FEF719091FD02E91739F0E09340
S1130250FE02F0E0EF5FFC4F208301C082E0809358
S1130260FC02FF91EF919F918F912F910F900BBE04
S11302700F900FBE0F901F9018951F920F920FB6FC
S11302800F9211240BB60F928F939F93EF93FF93CA
S1130290909100038091FF02981769F0E091FF02AA
S11302A0EF5FEF71E093FF02F0E0EF5DFC4F8081C0
S11302B08093C60005C0E1ECF0E080818F7D8083EF
S11302C0FF91EF919F918F910F900BBE0F900FBEF6
S11302D00F901F9018957894109200031092FF02CB
S11302E01092FE021092FD02992324F422E020933E
S11302F0C0009F779093C5008093C40088E98093E1
S1130300C10086E08093C2000895209100032F5F0E
S11303102F719091FF022917E1F3E22FF0E0EF5DD6
S1130320FC4F808320930003E1ECF0E08081806245
S113033080830895CF93DF93EC018881882329F08B
S11303402196E3DF89918111FCCFDF91CF9108954C
S11303501F920F920FB60F9211240BB60F922F9388
S11303608F939F93EF93FF938091D0002091D600B9
S11303708871E091B902EF5FEF719091B802E917CB
S113038039F0E093B902F0E0E454FD4F208301C05A
S113039082E08093B702FF91EF919F918F912F910B
S11303A00F900BBE0F900FBE0F901F9018951F92C9
S11303B00F920FB60F9211240BB60F928F939F9347
S11303C0EF93FF939091BB028091BA02981769F062
S11303D0E091BA02EF5FEF71E093BA02F0E0E45209
S11303E0FD4F80818093D60005C0E1EDF0E080816F
S11303F08F7D8083FF91EF919F918F910F900BBE22
S11304000F900FBE0F901F9018951F920F920FB66A
S11304100F9211240BB60F922F938F939F93EF9308
S1130420FF9380913001209136018871E09174022C
S1130430EF5FEF7190917302E91739F0E093740262
S1130440F0E0E958FD4F208301C082E080937202FE
S1130450FF91EF919F918F912F910F900BBE0F9071
S11304600FBE0F901F9018951F920F920FB60F9208
S113047011240BB60F928F939F93EF93FF93909158
S1130480760280917502981769F0E0917502EF5F2A
S1130490EF71E0937502F0E0E956FD4F808180939F
S11304A0360105C0E1E3F1E080818F7D8083FF9117
S11304B0EF919F918F910F900BBE0F900FBE0F90F5
S10B04C01F901895F894FFCF7A
S11304C801010101010150204761696E20496E63F1
S11304D87265617365200A0050204761696E204483
S11304E865637265617365200A0049204761696E16
S11304F820496E637265617365200A00492047616B
S1130508696E204465637265617365200A0044203E
S11305184761696E20496E637265617365200A00DC
S113052844204761696E2044656372656173652080
S10505380A00B3
S9030000FC
