S0110000696E746572727570742E7372656326
S11300000C942A000C9434000C9434000C943400A6
S11300100C9434000C9434000C9434000C9434008C
S11300200C9434000C9449000C9434000C94340067
S11300300C9434000C9434000C9434000C9434006C
S11300400C9434000C9434000C9434000C9434005C
S11300500C94340011241FBECFE5D8E0DEBFCDBF21
S11300600E9436000C945E000C9400008FEF81BB5C
S113007084BB17BA18BA83E08EBD80E593EC9DBDAE
S11300808CBD15BA789484E089BF86B382BB12BA5A
S1130090FCCF1F920F920FB60F9211248F939F9350
S11300A080E593EC9DBD8CBD85B3809585BB9F9108
S11300B08F910F900FBE0F901F901895F894FFCF5B
S9030000FC
