S01000006F6E6575617274622E73726563B4
S11300000C942A000C9434000C9434000C943400A6
S11300100C9434000C9434000C9434000C9434008C
S11300200C9434000C9434000C9434000C9434007C
S11300300C9434000C9434000C9434000C9434006C
S11300400C9434000C9434000C9434000C9434005C
S11300500C94340011241FBECFE5D8E0DEBFCDBF21
S11300600E9436000C944B000C94000081E087BB86
S113007080B580BD89B1896189B988E18AB98EE08A
S113008080BD91E05F9BFECF8CB1803FD9F788B3F0
S10D0090892788BBF7CFF894FFCF4F
S9030000FC
