S01500006D6F746F725F656E636F6465722E737265639F
S11300000C942A000C945D010C9447000C94470056
S11300100C9447000C9447000C9447000C948A01FC
S11300200C9447000C9447000C9447000C94470030
S11300300C9447000C9447000C9447000C94470020
S11300400C9447000C9447000C9447000C94470010
S11300500C94470011241FBECFE5D8E0DEBFCDBF0E
S113006010E0A0E6B0E0E6E7F6E002C005900D92ED
S1130070AA37B107D9F720E0AAE7B0E001C01D9282
S1130080A538B207E1F70E9404010C9439030C94DB
S1130090000095ED9A95F1F70000882314F4DA9A9C
S11300A001C0DA9886FF02C0DB9A01C0DB9885FFA5
S11300B002C0DC9A01C0DC9884FF02C0DD9A01C052
S11300C0DD98DE9ADE9883FF02C0DA9A01C0DA98DE
S11300D082FF02C0DB9A01C0DB9881FF02C0DC9A78
S11300E001C0DC9880FF02C0DD9A01C0DD98DE9A71
S11300F0DE980895DF9881E00E9449008FE39FE134
S11301000197F1F700C000000895CF93DF93EC014D
S1130110DF9A8881882331F021960E9449008991D1
S11301208111FBCFDF91CF910895DF9A0E9449009E
S11301300895DF9880680E9449000895D79AD69A56
S1130140D29AD39AD49AD59ADF98DE988FE59AEE0C
S11301500197F1F700C00000DD9ADC9ADB98DA9889
S1130160DE9ADE988FE19EE40197F1F700C000006B
S1130170DE9ADE988FE193E00197F1F700C000006A
S1130180DE9ADE988FE193E00197F1F700C000005A
S1130190DD98DC9ADB98DA98DE9ADE9888E20E9491
S11301A049008CE00E9449000E947A0086E00E9487
S11301B0490008950F931F93CF93DF93CDB7DEB714
S11301C02F970FB6F894DEBF0FBECDBF4AE0BE0135
S11301D06F5F7F4F0E9404038981882351F08E0151
S11301E00E5F1F4F0E949500F80181918F018111CC
S11301F0F9CF2F960FB6F894DEBF0FBECDBFDF91B7
S1130200CF911F910F9108950E949E0078948FEFD3
S11302108ABB11BA8EB58D608EBD80E189BF84E33F
S11302209CE09BBD8ABD8BB780648BBF85B7836020
S113023085BF80E00E94990020917D0030917E006E
S113024040917F0050918000ACE3B0E00E94EA024C
S11302500E945E0220E030E040EA51E40E94B401D2
S11302600E94260270937C0060937B0080E690E0FD
S11302700E94850080917B0090917C000E94DA00AE
S11302808AE00E94990080917A00882329F086E60A
S113029090E00E94850004C08BE690E00E948500F7
S11302A08CB59DB5813F9A4020F280E00E94990070
S11302B080E790E00E948500BCCF1F920F920FB69A
S11302C00F9211248F939F93AF93BF9380918100DA
S11302D090918200A0918300B09184000196A11DA9
S11302E0B11D8093810090938200A0938300B0930A
S11302F08400809B04C081E080937A0002C0109245
S11303007A00BF91AF919F918F910F900FBE0F9084
S11303101F9018951F920F920FB60F9211248F936E
S11303209F93AF93BF938091810090918200A0919D
S11303308300B091840080937D0090937E00A0930D
S11303407F00B0938000109281001092820010927E
S1130350830010928400BF91AF919F918F910F9071
S11303600FBE0F901F9018950E94C8010C94B00204
S11303700E94A90258F00E94A20240F029F45F3FB3
S113038029F00C94990251110C94E4020C949F02EC
S11303900E94C10268F39923B1F3552391F3951B8D
S11303A0550BBB27AA2762177307840738F09F5F92
S11303B05F4F220F331F441FAA1FA9F335D00E2EFF
S11303C03AF0E0E832D091505040E695001CCAF76C
S11303D02BD0FE2F29D0660F771F881FBB1F26172F
S11303E037074807AB07B0E809F0BB0B802DBF0106
S11303F0FF2793585F4F3AF09E3F510578F00C94D5
S113040099020C94E4025F3FE4F3983ED4F386959A
S113041077956795B795F7959F5FC9F7880F911DF5
S11304209695879597F90895E1E0660F771F881FE1
S1130430BB1F621773078407BA0720F0621B730B94
S1130440840BBA0BEE1F88F7E09508950E942D02E5
S11304506894B1110C94E40208950E94C90288F0D2
S11304609F5798F0B92F9927B751B0F0E1F0660F74
S1130470771F881F991F1AF0BA95C9F714C0B130B5
S113048091F00E94E302B1E008950C94E302672F17
S1130490782F8827B85F39F0B93FCCF386957795E4
S11304A06795B395D9F73EF49095809570956195CD
S11304B07F4F8F4F9F4F0895E89409C097FB3EF4F8
S11304C090958095709561957F4F8F4F9F4F99239D
S11304D0A9F0F92F96E9BB279395F695879577951B
S11304E06795B795F111F8CFFAF4BB0F11F460FFDB
S11304F01BC06F5F7F4F8F4F9F4F16C0882311F033
S113050096E911C0772321F09EE8872F762F05C046
S1130510662371F096E8862F70E060E02AF09A95E1
S1130520660F771F881FDAF7880F9695879597F9D6
S1130530089597F99F6780E870E060E008959FEF61
S113054080EC089500240A94161617061806090666
S1130550089500240A941216130614060506089535
S1130560092E0394000C11F4882352F0BB0F40F4BD
S1130570BF2B11F460FF04C06F5F7F4F8F4F9F4FFD
S1130580089557FD9058440F551F59F05F3F71F07F
S11305904795880F97FB991F61F09F3F79F08795E6
S11305A00895121613061406551FF2CF4695F1DF6F
S11305B008C0161617061806991FF1CF86957105FF
S11305C0610508940895E894BB2766277727CB0133
S11305D097F908950E94F502A59F900DB49F900D80
S11305E0A49F800D911D11240895A29FB001B39F73
S11305F0C001A39F700D811D1124911DB29F700D28
S1130600811D1124911D0895BB274A3031F499238B
S113061022F4BDE2909581959F4F0C941003BB2763
S1130620FB015527AA27880F991FAA1FA41710F0AA
S1130630A41B83955051B9F7A05DAA3308F0A95DB6
S1130640A193009779F7B111B1931192CB010C9456
S11306502903DC01FC01672F71917723E1F73297BD
S113066004C07C916D9370836291AE17BF07C8F389
S10906700895F894FFCF89
S113067652504D2D2000436B202000412E436B0029
S10D068652504D2D203020200000BA
S9030000FC
