S019000065787465726E616C696E746572727570742E73726563BB
S11300000C942A000C943E000C9434000C9434009C
S11300100C9434000C9434000C9434000C9434008C
S11300200C9434000C9434000C9434000C9434007C
S11300300C9434000C9434000C9434000C9434006C
S11300400C9434000C9434000C9434000C9434005C
S11300500C94340011241FBECFE5D8E0DEBFCDBF21
S11300600E9436000C944D000C9400008FEF84BB6A
S1130070789481E085BF80E48BBFFFCF1F920F92FD
S11300800FB60F9211248F9385B3809585BB8F9102
S11100900F900FBE0F901F901895F894FFCF9D
S9030000FC
