S01400007374657070657264726976652E73726563F3
S113000012C019C018C017C016C015C03DC013C017
S113001012C011C010C00FC00EC00DC00CC00BC068
S11300200AC009C008C011241FBECFE5D4E0DEBF5A
S1130030CDBF02D03FC0E4CFA59AA49AA39AA29AB6
S11300408EB58D608EBD89B7806189BF87E090E0F1
S11300509BBD8ABD78942AEA36EE86E991E0215068
S1130060304080409040D9F70000AD9AAB9A2AEA1C
S113007036EE86E991E02150304080409040D9F737
S11300800000AD98AB98E7CF1F920F920FB60F9276
S113009011248F939F9395B380E1892785BB95B3F2
S11300A084E0892785BB9F918F910F900FBE0F909D
S10B00B01F901895F894FFCF8E
S9030000FC
