S01700004763634170706C69636174696F6E342E7372656358
S11300000C942A000C9434000C9434000C943400A6
S11300100C9434000C9434000C9434000C9434008C
S11300200C9434000C9434000C9434000C9434007C
S11300300C9434000C9434000C9434000C9434006C
S11300400C9434000C9434000C9434000C9434005C
S11300500C94340011241FBECFE5D8E0DEBFCDBF21
S11300600E9436000C944C000C9400008FEF81BB6E
S113007083E088BB87E083BF86E08EBD1CBC12BED4
S11300809FEF82B7882311F092BB1CBC8CB58823E8
S10F0090C1F312BA12BEF5CFF894FFCFF2
S9030000FC
