S00E00006C656470776D2E737265638D
S11300000C942A000C9434000C9434000C943400A6
S11300100C9434000C9434000C9434000C9434008C
S11300200C9434000C9434000C9434000C9434007C
S11300300C9434000C9434000C9434000C9434006C
S11300400C944B000C9434000C9434000C94340045
S11300500C94340011241FBECFE5D8E0DEBFCDBF21
S11300600E9436000C9463000C94000081B38FEF5F
S113007081BB8FB582688FBD8EB589618EBD8FE0DF
S113008097E297BD86BD78943D9A3E9A339A379A03
S1130090389A369AFFCF1F920F920FB60F921124FF
S11300A02F938F939F9385B127E2829FC0011124E0
S11300B09BBD8ABD369A9F918F912F910F900FBE51
S10D00C00F901F901895F894FFCFDD
S9030000FC
