S017000065787465726E616C636F756E7465722E73726563AA
S11300000C942A000C943F000C943F000C943F0085
S11300100C943F000C943F000C943F000C943F0060
S11300200C943F000C943F000C943F000C943F0050
S11300300C943F000C943F000C943F000C943F0040
S11300400C943F000C943F000C943F000C943F0030
S11300500C943F0011241FBECFE5D8E0DEBFCDBF16
S113006010E0A0E6B0E0E8E0F1E002C005900D92F7
S1130070AA36B107D9F70E9441000C9482000C946F
S11300800000CF93DF93CDB7DEB72A970FB6F8946D
S1130090DEBF0FBECDBF81E088BB8FEF81BB84BBC9
S11300A087E083BF85E08EBD12BE8AE0E0E6F0E023
S11300B0DE01119601900D928A95E1F7AE01455F3C
S11300C05F4F9E012F5F3F4F722F632FD9018D9198
S11300D085BBE72FF62F1DBC1CBC808182BB82B779
S11300E08823D9F38CB59DB58032934010F412BEA9
S11300F0F4CF12BE3196E417F50769F7A417B507D4
S10B010031F7E4CFF894FFCFBE
S10D01083F065B4F666D7D277F6F95
S9030000FC
