S01100006469666644726976652E7372656380
S113000072C0000080C000007EC000007CC0000000
S11300107AC0000078C0000076C0000074C0000000
S113002072C0000070C000006EC000006CC0000010
S11300306AC0000027C200004EC2000064C0000075
S113004062C0000060C000005EC000005CC0000030
S11300505AC0000015011A01210128012F0136019F
S11300603D0144014B0152015F015F015F015F01EA
S11300705F015F015F015F01AC005F015F015F0130
S1130080B900C9005F01DA005F015F01F0005F01A0
S11300905F015F015F015F010001E7005F015F0134
S11300A00D015F0111015F015F015F015F015F01EC
S11300B05F015F015F015F015F015F015F015F013C
S11300C05F015F015F015F015F015F015F015F012C
S11300D05F015F015F0159015F015F015F015F0122
S11300E00F015F01130111241FBECFE5D8E0DEBF6D
S11300F0CDBF20E0A0E6B0E001C01D92A13BB20755
S1130100E1F739D165C37CCF61E081E690E0ACD101
S113011062E080E690E0A8D184E690E090936B00E2
S113012080936A0010926900109268001092670030
S113013010926600D19AD29A87E690E0F1D1789431
S1130140089503D2FC01FF27F097E934F10508F084
S1130150B6C0E65DFF4F36C380916A0090916B0094
S11301609093690080936800109267001092660073
S1130170089580916A0090916B0091958195910901
S11301809093690080936800109267001092660053
S1130190089580916A0090916B0022273327281BD1
S11301A0390B309367002093660090936900809325
S11301B06800089580916A0090916B0090936700A5
S11301C0809366009093690080936800089510926C
S11301D067001092660010926900109268000895FA
S11301E080916A0090916B0091958195910990930B
S11301F06700809366001092690010926800089569
S113020080916A0090916B009093670080936600E0
S113021010926900109268000895D99A0895D998A7
S11302200895DA9A0895DA98089510926B0010925E
S11302306A00089582E390E090936B0080936A00D3
S1130240089584E690E090936B0080936A0008958B
S113025086E990E090936B0080936A00089588EC9F
S113026090E090936B0080936A0008958AEF90E089
S113027090936B0080936A0008958CE291E09093D0
S11302806B0080936A0008958EE591E090936B0073
S113029080936A00089580E991E090936B008093C5
S11302A06A00089580E991E090936B0080936A005E
S11302B0089580E991E090936B0080936A0008951B
S11302C0EF92FF920F931F93CF93DF93C091680037
S11302D0D0916900E0906600F0906700BE016E0D59
S11302E07F1D072E000C880B990B7DD120E030E098
S11302F040E05FE3DCD144D18B01709365006093EF
S11303006400BE016E197F09072E000C880B990B3F
S11303106AD120E030E040E05FE3C9D131D19B01F4
S11303207093630060936200093C110534F088EC1B
S113033090E09093650080936400293C310534F08B
S113034088EC90E090936300809362006091640075
S11303507091650081E690E05FD0609162007091D9
S1130360630080E690E058D0DF91CF911F910F9108
S1130370FF90EF900895C8DEE4DEA2DFFDCFFC011C
S11303808081813071F48F9A8E9A8C9A8FB58268AD
S11303908FBD8EB58A618EBD89EF90E097BD86BD15
S11303A00895823069F4D69AD79A8D9A8FB582626D
S11303B08FBD8EB58A618EBD89EF90E097BD86BDF5
S11303C00895FC018081813019F0823021F0089574
S11303D0979A96980895DE9ADF980895FC01808193
S11303E0813019F0823021F008959798969A0895F3
S11303F0DE98DF9A0895FC018081813019F0823003
S113040031F008951BBC1ABC979A969A089519BCAA
S113041018BCDE9ADF9A08950F931F93CF93DF934E
S11304208C01EB011C161D060CF4CBDFC93FD10572
S113043044F4DD2344F4D195C195D109C801CEDF3C
S113044002C0C9EFD0E0F8018081813019F0823018
S113045021F005C0DBBDCABD02C0D9BDC8BDDF9156
S1130460CF911F910F910895CF93DF93EC0168838F
S113047086DFCE01C0DF60E070E0CE01CDDFDF912A
S1130480CF9108951F920F920FB60F9211242F93BC
S11304908F939F93EF93FF938BB12CB18871E0916D
S11304A06E00EF5FEF7190916D00E91739F0E09302
S11304B06E00F0E0EF58FF4F208301C082E080938C
S11304C06C00FF91EF919F918F912F910F900FBE30
S11304D00F901F9018951F920F920FB60F92112430
S11304E08F939F93EF93FF939091700080916F008F
S11304F0981761F0E0916F00EF5FEF71E0936F0088
S1130500F0E0EF56FF4F80818CB901C05598FF9100
S1130510EF919F918F910F900FBE0F901F901895A0
S113052078941092700010926F0010926E001092E6
S11305306D0099231CF422E02BB99F7790BD89B9F3
S113054088E98AB986E880BD089590916E0080910B
S11305506D00981791F0E0916D00EF5FEF71E093FB
S11305606D00F0E0EF58FF4F208180916C0090E027
S1130570982F8827820F911D089580E091E00895B7
S113058004D06894B1118DC0089570D088F09F573D
S113059090F0B92F9927B751A0F0D1F0660F771FCB
S11305A0881F991F1AF0BA95C9F712C0B13081F0AB
S11305B077D0B1E0089574C0672F782F8827B85F8B
S11305C039F0B93FCCF3869577956795B395D9F70C
S11305D03EF490958095709561957F4F8F4F9F4F16
S11305E00895E89409C097FB3EF490958095709522
S11305F061957F4F8F4F9F4F9923A9F0F92F96E96B
S1130600BB279395F695879577956795B795F111DF
S1130610F8CFFAF4BB0F11F460FF1BC06F5F7F4F7C
S11306208F4F9F4F16C0882311F096E911C077238E
S113063021F09EE8872F762F05C0662371F096E897
S1130640862F70E060E02AF09A95660F771F881F66
S1130650DAF7880F9695879597F9089557FD90587E
S1130660440F551F59F05F3F71F04795880F97FB72
S1130670991F61F09F3F79F087950895121613062C
S11306801406551FF2CF4695F1DF08C0161617065B
S11306901806991FF1CF8695710561050894089590
S11306A0E894BB2766277727CB0197F908950BD0E9
S11306B078C069D028F06ED018F0952309F05AC09C
S11306C05FC01124EECFCADFA0F3959FD1F3950F3D
S11306D050E0551F629FF001729FBB27F00DB11DC2
S11306E0639FAA27F00DB11DAA1F649F6627B00D52
S11306F0A11D661F829F2227B00DA11D621F739F3B
S1130700B00DA11D621F839FA00D611D221F749F48
S11307103327A00D611D231F849F600D211D822F8F
S1130720762F6A2F11249F5750408AF0E1F08823D6
S11307304AF0EE0FFF1FBB1F661F771F881F9150E3
S11307405040A9F79E3F510570F014C0AACF5F3FF7
S1130750ECF3983EDCF3869577956795B795F79516
S1130760E7959F5FC1F7FE2B880F911D969587959E
S113077097F9089597F99F6780E870E060E008951D
S11307809FEF80EC089500240A94161617061806A5
S11307900906089500240A94121613061406050681
S11307A00895092E0394000C11F4882352F0BB0F12
S11307B040F4BF2B11F460FF04C06F5F7F4F8F4F75
S11307C09F4F0895EE0FFF1F0590F491E02D0994BB
S10707D0F894FFCFC7
S9030000FC
