S0200000636F6D6D756E69636174696F6E5F756C747261736F6E69632E73726563EB
S11300000C9434000C9498000C9451000C945100FE
S11300100C9451000C9451000C9451000C94510018
S11300200C9451000C9451000C9451000C94510008
S11300300C9451000C9451000C9451000C945100F8
S11300400C9451000C9451000C9451000C945100E8
S11300500C9451000C9451000C9451000C945100D8
S11300600C9451000C94510011241FBECFEFD8E022
S1130070DEBFCDBF11E0A0E0B1E0E0E7F2E002C0F6
S113008005900D92AA33B107D9F721E0AAE3B1E0B4
S113009001C01D92AD33B207E1F70E947D000C94BC
S11300A036010C94000081E0809381001092850059
S11300B01092840010923C010895E4E8F0E08081FD
S11300C0918190933B0180933A01109281001182B7
S11300D0108281E080933C0108951BB885E08A95E5
S11300E0F1F700005B9A80E48A95F1F78BB18BB944
S11300F085E08A95F1F70000089580E895E20E9472
S1130100C30081E080933C01539A52987894809381
S1130110690085B7816085BFE1E8F0E08081816096
S1130120808380E091E00E94E6000E946D00FFCF92
S11301301F920F920FB60F9211242F933F934F9358
S11301405F936F937F938F939F93AF93BF93EF933B
S1130150FF9380913C01813019F40E94530002C046
S11301600E945D00FF91EF91BF91AF919F918F919C
S11301707F916F915F914F913F912F910F900FBE9F
S11301800F901F9018959C0140E050E060E472E4E9
S11301908FE090E00E94F500215031093093C500B2
S11301A02093C400E1ECF0E0808188618083E2EC7C
S11301B0F0E080818660808380E00895E0ECF0E0E8
S11301C0908195FFFDCF8093C6000895CF93DF9370
S11301D0EC018881882331F021960E94DE00899108
S11301E08111FBCFDF91CF910895052E97FB1EF46B
S11301F000940E940C0157FD07D00E94140107FCD3
S113020003D04EF40C940C015095409530952195F3
S11302103F4F4F4F5F4F089590958095709561952E
S11302207F4F8F4F9F4F0895A1E21A2EAA1BBB1B2D
S1130230FD010DC0AA1FBB1FEE1FFF1FA217B307AE
S1130240E407F50720F0A21BB30BE40BF50B661FC4
S1130250771F881F991F1A9469F760957095809588
S113026090959B01AC01BD01CF010895F894FFCF97
S11302702A2A2A2A2A2A2A2A2A2A2E2E2E496E692C
S11302807469616C697A696E6720756C74726173E4
S11302906F6E6963206D6F64756C652E2E2E2A2A2D
S10D02A02A2A2A2A2A2A2A2A000000
S9030000FC
