S011000070726F78696D6974792E737265631E
S113000071C000008EC000008CC000008AC00000D7
S113001088C0000086C0000084C0000082C00000C8
S113002080C000007EC000007CC000007AC00000D8
S113003078C0000076C0000074C0000072C00000E8
S113004070C000006EC000006CC000006AC00000F8
S113005068C0000066C0000064C0000062C0000008
S113006060C00000B0C000005CC000005AC00000C6
S113007058C0000056C0000054C0000052C0000028
S113008050C000004EC000004CC000004AC0000038
S1130090AAC0000046C0000044C0000042C00000E6
S11300A040C000003EC000003CC000003AC0000058
S11300B038C0000036C0000034C0000032C0000068
S11300C030C000002EC000002CC000009CC0000006
S11300D028C0000026C00000A6C0000022C0000006
S11300E020C0000011241FBECFEFD1E2DEBFCDBF80
S11300F000E00CBF12E0A0E0B2E0EAE4F2E000E0CD
S11301000BBF02C007900D92A232B107D9F722E0CB
S1130110A2E2B2E001C01D92A632B207E1F702D01A
S113012092C06ECF78942DD0109201011DB88FEF3C
S113013080BB809302018EB9C0E0D1E00FE010EFE4
S1130140888185FF05C001BB80E092E02ED004C009
S113015088E092E02AD011BA639B05C011BB81E10B
S113016092E023D004C011BA89E192E01ED02FEFAF
S113017083EC99E0215080409040E1F700C00000FA
S1130180DFCF1092C50087E68093C40088E980938E
S1130190C10086E08093C2000895E0ECF0E0908115
S11301A095FFFDCF8093C6000895CF93DF93EC01B4
S11301B08881882329F02196F0DF89918111FCCF71
S11301C0DF91CF9108951F920F920FB60F921124D1
S11301D08F938091C600809325028F910F900FBE5C
S11301E00F901F9018951F920F920FB60F92112423
S11301F08F938091CE00809324028F910F900FBE35
S11302000F901F9018951F920F920FB60F92112402
S11302108F938091D600809322028F910F900FBE0E
S11302200F901F9018951F920F920FB60F921124E2
S11302308F9380913601809323028F910F900FBE8C
S10D02400F901F901895F894FFCF5B
S113024A5031206F6E2009005031206F66662009F4
S113025A005032206F6E200A005032206F666620EA
S105026A0A0084
S9030000FC
