S01300006D6567614C4344746573742E73726563E4
S113000079C000008EC000008CC000008AC00000CF
S113001088C0000086C0000084C0000082C00000C8
S113002080C000007EC000007CC000007AC00000D8
S113003078C0000076C0000074C0000072C00000E8
S113004070C000006EC000006CC000006AC00000F8
S113005068C0000066C0000064C0000062C0000008
S113006060C000005EC000005CC000005AC0000018
S113007058C0000056C0000054C0000052C0000028
S113008050C000004EC000004CC000004AC0000038
S113009048C0000046C0000044C0000042C0000048
S11300A040C000003EC000003CC000003AC0000058
S11300B038C0000036C0000034C0000032C0000068
S11300C030C000002EC000002CC000002AC0000078
S11300D028C0000026C0000024C0000022C0000088
S11300E020C000003031323334353637383941429C
S11300F04344454611241FBECFEFD1E2DEBFCDBF3E
S113010000E00CBF12E0A0E0B2E0E6EAF3E000E0B9
S11301100BBF02C007900D92A630B107D9F732D1B8
S113012040C16ECF95ED9A95F1F70000882314F441
S1130130429A01C0429886FF02C0409A01C040988A
S113014085FF02C0A29A01C0A29884FF02C0A09AAF
S113015001C0A098A19AA19883FF02C0429A01C04D
S1130160429882FF02C0409A01C0409881FF02C0B9
S1130170A29A01C0A29880FF02C0A09A01C0A098D0
S1130180A19AA1980895EBE0F1E080818B7F8083B0
S113019081E0C8DF8FE39FE10197F1F700C0000021
S11301A00895CF93DF93EC01EBE0F1E0808184606C
S11301B080838881882329F02196B4DF8991811175
S11301C0FCCFDF91CF910895EBE0F1E09081946052
S11301D09083A8CF0895EAE0F1E080818460808371
S11301E0999A3A9A389A9A9A989AEBE0F1E080812F
S11301F08B7F8083A1988FE59AEE0197F1F700C079
S11302000000A09AA29A40984298A19AA1988FE1DE
S11302109EE40197F1F700C00000A19AA1988FE134
S113022093E00197F1F700C00000A19AA1988FE133
S113023093E00197F1F700C00000A098A29A4098BB
S11302404298A19AA19888E26DDF8CE06BDF9BDF76
S113025086E068CF0895FF920F931F93CF93DF93A7
S1130260DC016FE070E010E0C0E0D0E0E1E0F0E03D
S1130270F12C00E008C0CE018F709927059708F093
S1130280239661507109CE01807F992780359105AD
S113029008F0E096CE0188279F708115954008F0FC
S11302A0DD5FCE018827907F8115904508F0D05DF1
S11302B0110F9D2F991F9927991F190FCC0FDD1F1F
S11302C09F01062E02C0220F331F0A94E2F72A234D
S11302D03B23AF01232B11F44F2D502FC40FD51FF7
S11302E06115710541F6112309F439C0E12FF0E0DD
S11302F0EC51FF4F808168DFFE01EF2FFF27E2956D
S1130300EF70EC51FF4F84915FDF111104C0CF3FB8
S1130310D10579F170F1ED2FFF27EF70FF27EC5134
S1130320FF4F849151DF111103C0C031D10568F032
S1130330FE01F295E295EF70EF27FF70EF27EF7063
S1130340FF27EC51FF4F849101C080E23DDFFE01A5
S1130350EF70FF27EC51FF4F849136DF0DC080E230
S113036033DFC11580E1D80708F0C6CF80E22CDF67
S1130370CECF80E229DFD9CFDF91CF911F910F91AA
S1130380FF90089528DF80E092E00BDF8AE090E0A0
S113039062DF8FE39CE90197F1F700C00000F3DE10
S10903A0F2CFF894FFCF38
S10903A6446174613D0096
S9030000FC
