S01800006D6567615069645F76656C6F636974792E7372656387
S113000071C00000C8C000008CC000008AC000009D
S113001088C0000086C0000084C0000082C00000C8
S113002080C000007EC000007CC000007AC00000D8
S113003078C0000076C0000074C0000072C00000E8
S113004070C00000E5C000006CC000006AC0000081
S113005068C0000066C0000064C0000062C0000008
S113006060C000003BC1000068C100005AC000002D
S113007058C0000056C0000054C0000052C0000028
S113008050C000004EC000004CC000004AC0000038
S113009048C0000046C0000044C0000042C0000048
S11300A040C000003EC000003CC000003AC0000058
S11300B038C0000036C0000034C0000032C0000068
S11300C030C000002EC000002CC00000C8C10000D9
S11300D0F5C1000026C000001FC200004CC2000091
S11300E020C0000011241FBECFEFD1E2DEBFCDBF80
S11300F000E00CBF12E0A0E0B2E0E0E5F9E000E0CF
S11301000BBF02C007900D92A430B107D9F722E0CB
S1130110A4E0B2E001C01D92AF3DB207E1F702D006
S113012015C46ECF87E690E036D11AB8E1E8F0E066
S113013080818D608083E9E6F0E080818360808344
S1130140E89AEFE6F0E080818260808388E391E0C2
S1130150909389008093880078946B9AA1E9B0E029
S11301608C9185608C93E0E9F0E0808182608083EB
S11301708C9180618C9380818068808386E290E09A
S1130180909397008093960084E190E09093990077
S113019080939800FFCF1F920F920FB60F921124F5
S11301A08F939F93AF93BF93499914C080910C028E
S11301B090910D02A0910E02B0910F020197A10936
S11301C0B10980930C0290930D02A0930E02B09398
S11301D00F0215C0499B13C080910C0290910D022F
S11301E0A0910E02B0910F020196A11DB11D809342
S11301F00C0290930D02A0930E02B0930F02BF91D4
S1130200AF919F918F910F900FBE0F901F901895F3
S11302101F920F920FB60F9211240BB60F922F93C9
S11302203F934F935F936F937F938F939F93AF937A
S1130230BF93EF93FF9360910C0270910D02809134
S11302400E0290910F0260D220E030E040EA50E4C8
S1130250C0D16093040270930502809306029093C8
S11302600702609104027091050280910602909148
S1130270070220E030E040E752E4D2D212D2609389
S113028008027093090280930A0290930B028091F2
S1130290080290910902A0910A02B0910B02A9D020
S11302A080E092E0CED010920C0210920D021092D7
S11302B00E0210920F02FF91EF91BF91AF919F91A7
S11302C08F917F916F915F914F913F912F910F90FB
S11302D00BBE0F900FBE0F901F9018951F920F9298
S11302E00FB60F9211240BB60F922F938F939F93F7
S11302F0EF93FF938091C0002091C6008871E09134
S11303009C02EF5FEF7190919B02E91739F0E09343
S11303109C02F0E0E156FD4F208301C082E080930F
S11303209A02FF91EF919F918F912F910F900BBEA5
S11303300F900FBE0F901F9018951F920F920FB63B
S11303400F9211240BB60F928F939F93EF93FF9309
S113035090919E0280919D02981769F0E0919D0210
S1130360EF5FEF71E0939D02F0E0E154FD4F808177
S11303708093C60005C0E1ECF0E080818F7D80832E
S1130380FF91EF919F918F910F900BBE0F900FBE35
S11303900F901F90189510929E0210929D02109239
S11303A09C0210929B02992324F422E02093C00023
S11303B09F779093C5008093C40088E98093C1001F
S11303C086E08093C200089520919E022F5F2F71D2
S11303D090919D022917E1F3E22FF0E0E154FD4FE3
S11303E0808320939E02E1ECF0E080818062808330
S11303F008950F931F93CF93DF93CDB7DEB72F9755
S11304000FB6F894DEBF0FBECDBF4AE0BE016F5FEA
S11304107F4F69D28981882349F08E010E5F1F4F77
S1130420D3DFF80181918F018111FACF2F960FB696
S1130430F894DEBF0FBECDBFDF91CF911F910F9116
S11304400895CF93DF93EC018881882329F02196C6
S1130450BBDF89918111FCCFDF91CF9108951F9269
S11304600F920FB60F9211240BB60F922F938F9306
S11304709F93EF93FF938091D0002091D6008871D1
S1130480E0915702EF5FEF7190915602E91739F04E
S1130490E0935702F0E0E65AFD4F208301C082E06A
S11304A080935502FF91EF919F918F912F910F901F
S11304B00BBE0F900FBE0F901F9018951F920F92B6
S11304C00FB60F9211240BB60F928F939F93EF9355
S11304D0FF939091590280915802981769F0E09126
S11304E05802EF5FEF71E0935802F0E0E658FD4FD9
S11304F080818093D60005C0E1EDF0E080818F7D9E
S11305008083FF91EF919F918F910F900BBE0F907D
S11305100FBE0F901F9018951F920F920FB60F9257
S113052011240BB60F922F938F939F93EF93FF9306
S113053080913001209136018871E0911202EF5FC1
S1130540EF7190911102E91739F0E0931202F0E093
S1130550EB5EFD4F208301C082E080931002FF9187
S1130560EF919F918F912F910F900BBE0F900FBE23
S11305700F901F9018951F920F920FB60F9211248F
S11305800BB60F928F939F93EF93FF939091140266
S113059080911302981769F0E0911302EF5FEF71F5
S11305A0E0931302F0E0EB5CFD4F80818093360111
S11305B005C0E1E3F1E080818F7D8083FF91EF91BD
S11305C09F918F910F900BBE0F900FBE0F901F90B5
S11305D018950CD0EBC0E3D040F0DAD030F021F421
S11305E05F3F19F0CCC0511115C1CFC0F0D098F3C2
S11305F09923C9F35523B1F3951B550BBB27AA27A0
S113060062177307840738F09F5F5F4F220F331F11
S1130610441FAA1FA9F333D00E2E3AF0E0E830D0DD
S113062091505040E695001CCAF729D0FE2F27D0E0
S1130630660F771F881FBB1F261737074807AB07AE
S1130640B0E809F0BB0B802DBF01FF2793585F4F23
S11306502AF09E3F510568F092C0DCC05F3FECF386
S1130660983EDCF3869577956795B795F7959F5FE8
S1130670C9F7880F911D9695879597F90895E1E03C
S1130680660F771F881FBB1F621773078407BA079B
S113069020F0621B730B840BBA0BEE1F88F7E095F6
S11306A0089504D06894B111B5C0089598D088F025
S11306B09F5790F0B92F9927B751A0F0D1F0660F4A
S11306C0771F881F991F1AF0BA95C9F712C0B13065
S11306D081F09FD0B1E008959CC0672F782F8827C0
S11306E0B85F39F0B93FCCF3869577956795B395A4
S11306F0D9F73EF490958095709561957F4F8F4F13
S11307009F4F0895E89409C097FB3EF49095809517
S1130710709561957F4F8F4F9F4F9923A9F0F92FC3
S113072096E9BB279395F695879577956795B79541
S1130730F111F8CFFAF4BB0F11F460FF1BC06F5F27
S11307407F4F8F4F9F4F16C0882311F096E911C039
S1130750772321F09EE8872F762F05C0662371F05A
S113076096E8862F70E060E02AF09A95660F771F6E
S1130770881FDAF7880F9695879597F9089597F962
S11307809F6780E870E060E008959FEF80EC089533
S113079000240A941616170618060906089500245C
S11307A00A9412161306140605060895092E0394D6
S11307B0000C11F4882352F0BB0F40F4BF2B11F44A
S11307C060FF04C06F5F7F4F8F4F9F4F089557FDA9
S11307D09058440F551F59F05F3F71F04795880FAB
S11307E097FB991F61F09F3F79F087950895121642
S11307F013061406551FF2CF4695F1DF08C01616EE
S113080017061806991FF1CF86957105610508949E
S11308100895E894BB2766277727CB0197F90895B5
S11308200BD0C4CFB5DF28F0BADF18F0952309F058
S1130830A6CFABCF1124EECFCADFA0F3959FD1F39F
S1130840950F50E0551F629FF001729FBB27F00D7A
S1130850B11D639FAA27F00DB11DAA1F649F6627CF
S1130860B00DA11D661F829F2227B00DA11D621F1E
S1130870739FB00DA11D621F839FA00D611D221FD8
S1130880749F3327A00D611D231F849F600D211DBC
S1130890822F762F6A2F11249F5750408AF0E1F05F
S11308A088234AF0EE0FFF1FBB1F661F771F881FA8
S11308B091505040A9F79E3F510570F060CFAACFE8
S11308C05F3FECF3983EDCF3869577956795B79593
S11308D0F795E7959F5FC1F7FE2B880F911D9695BD
S11308E0879597F90895BB274A3031F4992322F468
S11308F0BDE2909581959F4F01C0BB27FB01552711
S1130900AA27880F991FAA1FA41710F0A41B839568
S11309105051B9F7A05DAA3308F0A95DA1930097DF
S113092079F7B111B1931192CB0100C0DC01FC0144
S1130930672F71917723E1F7329704C07C916D930F
S113094070836291AE17BF07C8F30895F894FFCF80
S10709500A200D0068
S9030000FC
